:08000000803102288731EB2F4B
:100F3A00F4340134C834003421009D149D18A62FBE
:100F4A00A72FA32F08007030210099000430230036
:100F5A008C008D01043021008C008D0120008C0151
:100F6A008D01093021009D00D0309E000800873194
:100F7A00A82787318731A127873121001C08F00073
:100F8A00F1017008FA007108FB001B08F000F1017A
:100F9A007A08F300F20170087207F4007108733DD1
:100FAA00F5007408FA007508FB0000307B02C930AE
:100FBA0003197A02031CE22FE32FE62F20008C1478
:100FCA00BF2F20008C10BF2F8031022887319D2728
:100FDA008731F60087319E278731F70087319F27AF
:100FEA008731F8008731A0278731F900FA01FB0120
:060FFA0020008731BC2F2E
:020000040001F9
:08000000FF3FFF3FFF3FFF3F00
:04000E00E40FFF1CE0
:00000001FF
